{
  "contractName": "AnonymousSurvey",
  "abi": [
    {
      "anonymous": false,
      "inputs": [
        {
          "indexed": false,
          "internalType": "uint256",
          "name": "surveyId",
          "type": "uint256"
        },
        {
          "indexed": false,
          "internalType": "string",
          "name": "answer",
          "type": "string"
        }
      ],
      "name": "AnswerReceived",
      "type": "event"
    },
    {
      "inputs": [
        {
          "internalType": "uint256",
          "name": "",
          "type": "uint256"
        },
        {
          "internalType": "uint256",
          "name": "",
          "type": "uint256"
        }
      ],
      "name": "answers",
      "outputs": [
        {
          "internalType": "string",
          "name": "",
          "type": "string"
        }
      ],
      "stateMutability": "view",
      "type": "function"
    },
    {
      "inputs": [
        {
          "internalType": "uint256",
          "name": "",
          "type": "uint256"
        }
      ],
      "name": "surveys",
      "outputs": [
        {
          "internalType": "uint256",
          "name": "id",
          "type": "uint256"
        },
        {
          "internalType": "string",
          "name": "question",
          "type": "string"
        }
      ],
      "stateMutability": "view",
      "type": "function"
    },
    {
      "inputs": [
        {
          "internalType": "string",
          "name": "_question",
          "type": "string"
        }
      ],
      "name": "createSurvey",
      "outputs": [],
      "stateMutability": "nonpayable",
      "type": "function"
    },
    {
      "inputs": [
        {
          "internalType": "uint256",
          "name": "_surveyId",
          "type": "uint256"
        },
        {
          "internalType": "string",
          "name": "_answer",
          "type": "string"
        }
      ],
      "name": "answerSurvey",
      "outputs": [],
      "stateMutability": "nonpayable",
      "type": "function"
    },
    {
      "inputs": [
        {
          "internalType": "uint256",
          "name": "_surveyId",
          "type": "uint256"
        }
      ],
      "name": "getSurveyQuestion",
      "outputs": [
        {
          "internalType": "string",
          "name": "",
          "type": "string"
        }
      ],
      "stateMutability": "view",
      "type": "function"
    },
    {
      "inputs": [
        {
          "internalType": "uint256",
          "name": "_surveyId",
          "type": "uint256"
        }
      ],
      "name": "getSurveyAnswers",
      "outputs": [
        {
          "internalType": "string[]",
          "name": "",
          "type": "string[]"
        }
      ],
      "stateMutability": "view",
      "type": "function"
    }
  ],
  "bytecode": "0x608060405234801561000f575f80fd5b50610e248061001d5f395ff3fe608060405234801561000f575f80fd5b5060043610610060575f3560e01c80632401519c14610064578063396ab5911461009457806386e68b90146100b0578063a4a5b6ee146100e1578063e3accbd214610111578063e82ea29314610141575b5f80fd5b61007e60048036038101906100799190610650565b61015d565b60405161008b9190610718565b60405180910390f35b6100ae60048036038101906100a99190610864565b61020e565b005b6100ca60048036038101906100c591906108ab565b610271565b6040516100d89291906108e5565b60405180910390f35b6100fb60048036038101906100f691906108ab565b610325565b6040516101089190610718565b60405180910390f35b61012b600480360381019061012691906108ab565b61041d565b6040516101389190610a16565b60405180910390f35b61015b60048036038101906101569190610a36565b610548565b005b6001602052815f5260405f208181548110610176575f80fd5b905f5260205f20015f9150915050805461018f90610abd565b80601f01602080910402602001604051908101604052809291908181526020018280546101bb90610abd565b80156102065780601f106101dd57610100808354040283529160200191610206565b820191905f5260205f20905b8154815290600101906020018083116101e957829003601f168201915b505050505081565b5f60405180604001604052805f80549050815260200183815250908060018154018082558091505060019003905f5260205f2090600202015f909190919091505f820151815f0155602082015181600101908161026b9190610c8a565b50505050565b5f818154811061027f575f80fd5b905f5260205f2090600202015f91509050805f0154908060010180546102a490610abd565b80601f01602080910402602001604051908101604052809291908181526020018280546102d090610abd565b801561031b5780601f106102f25761010080835404028352916020019161031b565b820191905f5260205f20905b8154815290600101906020018083116102fe57829003601f168201915b5050505050905082565b60605f80549050821061036d576040517f08c379a000000000000000000000000000000000000000000000000000000000815260040161036490610da3565b60405180910390fd5b5f82815481106103805761037f610dc1565b5b905f5260205f209060020201600101805461039a90610abd565b80601f01602080910402602001604051908101604052809291908181526020018280546103c690610abd565b80156104115780601f106103e857610100808354040283529160200191610411565b820191905f5260205f20905b8154815290600101906020018083116103f457829003601f168201915b50505050509050919050565b60605f805490508210610465576040517f08c379a000000000000000000000000000000000000000000000000000000000815260040161045c90610da3565b60405180910390fd5b60015f8381526020019081526020015f20805480602002602001604051908101604052809291908181526020015f905b8282101561053d578382905f5260205f200180546104b290610abd565b80601f01602080910402602001604051908101604052809291908181526020018280546104de90610abd565b80156105295780601f1061050057610100808354040283529160200191610529565b820191905f5260205f20905b81548152906001019060200180831161050c57829003601f168201915b505050505081526020019060010190610495565b505050509050919050565b5f80549050821061058e576040517f08c379a000000000000000000000000000000000000000000000000000000000815260040161058590610da3565b60405180910390fd5b60015f8381526020019081526020015f2081908060018154018082558091505060019003905f5260205f20015f9091909190915090816105ce9190610c8a565b507ff693f76e0efa83819f34e33773ceeac79f34226c53ec788044b8013889f69aec82826040516106009291906108e5565b60405180910390a15050565b5f604051905090565b5f80fd5b5f80fd5b5f819050919050565b61062f8161061d565b8114610639575f80fd5b50565b5f8135905061064a81610626565b92915050565b5f806040838503121561066657610665610615565b5b5f6106738582860161063c565b92505060206106848582860161063c565b9150509250929050565b5f81519050919050565b5f82825260208201905092915050565b5f5b838110156106c55780820151818401526020810190506106aa565b5f8484015250505050565b5f601f19601f8301169050919050565b5f6106ea8261068e565b6106f48185610698565b93506107048185602086016106a8565b61070d816106d0565b840191505092915050565b5f6020820190508181035f83015261073081846106e0565b905092915050565b5f80fd5b5f80fd5b7f4e487b71000000000000000000000000000000000000000000000000000000005f52604160045260245ffd5b610776826106d0565b810181811067ffffffffffffffff8211171561079557610794610740565b5b80604052505050565b5f6107a761060c565b90506107b3828261076d565b919050565b5f67ffffffffffffffff8211156107d2576107d1610740565b5b6107db826106d0565b9050602081019050919050565b828183375f83830152505050565b5f610808610803846107b8565b61079e565b9050828152602081018484840111156108245761082361073c565b5b61082f8482856107e8565b509392505050565b5f82601f83011261084b5761084a610738565b5b813561085b8482602086016107f6565b91505092915050565b5f6020828403121561087957610878610615565b5b5f82013567ffffffffffffffff81111561089657610895610619565b5b6108a284828501610837565b91505092915050565b5f602082840312156108c0576108bf610615565b5b5f6108cd8482850161063c565b91505092915050565b6108df8161061d565b82525050565b5f6040820190506108f85f8301856108d6565b818103602083015261090a81846106e0565b90509392505050565b5f81519050919050565b5f82825260208201905092915050565b5f819050602082019050919050565b5f82825260208201905092915050565b5f6109568261068e565b610960818561093c565b93506109708185602086016106a8565b610979816106d0565b840191505092915050565b5f61098f838361094c565b905092915050565b5f602082019050919050565b5f6109ad82610913565b6109b7818561091d565b9350836020820285016109c98561092d565b805f5b85811015610a0457848403895281516109e58582610984565b94506109f083610997565b925060208a019950506001810190506109cc565b50829750879550505050505092915050565b5f6020820190508181035f830152610a2e81846109a3565b905092915050565b5f8060408385031215610a4c57610a4b610615565b5b5f610a598582860161063c565b925050602083013567ffffffffffffffff811115610a7a57610a79610619565b5b610a8685828601610837565b9150509250929050565b7f4e487b71000000000000000000000000000000000000000000000000000000005f52602260045260245ffd5b5f6002820490506001821680610ad457607f821691505b602082108103610ae757610ae6610a90565b5b50919050565b5f819050815f5260205f209050919050565b5f6020601f8301049050919050565b5f82821b905092915050565b5f60088302610b497fffffffffffffffffffffffffffffffffffffffffffffffffffffffffffffffff82610b0e565b610b538683610b0e565b95508019841693508086168417925050509392505050565b5f819050919050565b5f610b8e610b89610b848461061d565b610b6b565b61061d565b9050919050565b5f819050919050565b610ba783610b74565b610bbb610bb382610b95565b848454610b1a565b825550505050565b5f90565b610bcf610bc3565b610bda818484610b9e565b505050565b5b81811015610bfd57610bf25f82610bc7565b600181019050610be0565b5050565b601f821115610c4257610c1381610aed565b610c1c84610aff565b81016020851015610c2b578190505b610c3f610c3785610aff565b830182610bdf565b50505b505050565b5f82821c905092915050565b5f610c625f1984600802610c47565b1980831691505092915050565b5f610c7a8383610c53565b9150826002028217905092915050565b610c938261068e565b67ffffffffffffffff811115610cac57610cab610740565b5b610cb68254610abd565b610cc1828285610c01565b5f60209050601f831160018114610cf2575f8415610ce0578287015190505b610cea8582610c6f565b865550610d51565b601f198416610d0086610aed565b5f5b82811015610d2757848901518255600182019150602085019450602081019050610d02565b86831015610d445784890151610d40601f891682610c53565b8355505b6001600288020188555050505b505050505050565b7f53757276657920646f6573206e6f742065786973742e000000000000000000005f82015250565b5f610d8d601683610698565b9150610d9882610d59565b602082019050919050565b5f6020820190508181035f830152610dba81610d81565b9050919050565b7f4e487b71000000000000000000000000000000000000000000000000000000005f52603260045260245ffdfea2646970667358221220832e0effaa3ea34d47ae297b86bc4dc1a5a3a50d1c277dd5ed033b50c59a80b264736f6c63430008150033",
  "immutableReferences": {},
  "source": "// SPDX-License-Identifier: MIT\npragma solidity ^0.8.0;\n\ncontract AnonymousSurvey {\n    //      \n    struct Survey {\n        uint id; //   \n        string question; //  \n    }\n\n    //      \n    event AnswerReceived(uint surveyId, string answer);\n\n    //    \n    Survey[] public surveys;\n\n    //   ,  - ID ,  -  \n    mapping(uint => string[]) public answers;\n\n    //     \n    function createSurvey(string memory _question) public {\n        surveys.push(Survey(surveys.length, _question));\n    }\n\n    //      \n    function answerSurvey(uint _surveyId, string memory _answer) public {\n        require(_surveyId < surveys.length, \"Survey does not exist.\");\n        answers[_surveyId].push(_answer);\n        emit AnswerReceived(_surveyId, _answer);\n    }\n\n    //       ID\n    function getSurveyQuestion(uint _surveyId) public view returns (string memory) {\n        require(_surveyId < surveys.length, \"Survey does not exist.\");\n        return surveys[_surveyId].question;\n    }\n\n    //         ID\n    function getSurveyAnswers(uint _surveyId) public view returns (string[] memory) {\n        require(_surveyId < surveys.length, \"Survey does not exist.\");\n        return answers[_surveyId];\n    }\n}\n",
  "sourcePath": "/Users/alexandr/Documents/QPole-PSU/client/contracts/AnonymousSurvey.sol",
  "compiler": {
    "name": "solc",
    "version": "0.8.21+commit.d9974bed.Emscripten.clang"
  },
  "schemaVersion": "3.4.16",
  "updatedAt": "2024-03-28T16:17:24.420Z",
  "devdoc": {
    "kind": "dev",
    "methods": {},
    "version": 1
  },
  "userdoc": {
    "kind": "user",
    "methods": {},
    "version": 1
  }
}