{
  "contractName": "MiniPoll",
  "abi": [
    {
      "inputs": [
        {
          "internalType": "uint256",
          "name": "",
          "type": "uint256"
        }
      ],
      "name": "polls",
      "outputs": [
        {
          "internalType": "string",
          "name": "poll_id",
          "type": "string"
        },
        {
          "internalType": "string",
          "name": "name",
          "type": "string"
        },
        {
          "internalType": "string",
          "name": "poll_type",
          "type": "string"
        }
      ],
      "stateMutability": "view",
      "type": "function",
      "constant": true
    },
    {
      "inputs": [
        {
          "internalType": "string",
          "name": "poll_id",
          "type": "string"
        },
        {
          "components": [
            {
              "internalType": "uint256",
              "name": "question",
              "type": "uint256"
            },
            {
              "internalType": "uint256",
              "name": "answer_option",
              "type": "uint256"
            }
          ],
          "internalType": "struct MiniPoll.VoteInput[]",
          "name": "votes",
          "type": "tuple[]"
        }
      ],
      "name": "vote",
      "outputs": [],
      "stateMutability": "nonpayable",
      "type": "function"
    },
    {
      "inputs": [
        {
          "internalType": "string",
          "name": "poll_id",
          "type": "string"
        },
        {
          "internalType": "string",
          "name": "poll_type",
          "type": "string"
        }
      ],
      "name": "createPoll",
      "outputs": [],
      "stateMutability": "nonpayable",
      "type": "function"
    },
    {
      "inputs": [
        {
          "internalType": "string",
          "name": "poll_id",
          "type": "string"
        },
        {
          "internalType": "string",
          "name": "field",
          "type": "string"
        },
        {
          "internalType": "string",
          "name": "value",
          "type": "string"
        }
      ],
      "name": "patchPoll",
      "outputs": [],
      "stateMutability": "nonpayable",
      "type": "function"
    },
    {
      "inputs": [],
      "name": "getAllPolls",
      "outputs": [
        {
          "internalType": "string[]",
          "name": "",
          "type": "string[]"
        }
      ],
      "stateMutability": "view",
      "type": "function",
      "constant": true
    },
    {
      "inputs": [
        {
          "internalType": "string",
          "name": "poll_id",
          "type": "string"
        },
        {
          "internalType": "uint256",
          "name": "question_id",
          "type": "uint256"
        },
        {
          "internalType": "uint256",
          "name": "ans_id",
          "type": "uint256"
        }
      ],
      "name": "addAnswerToQuestion",
      "outputs": [],
      "stateMutability": "nonpayable",
      "type": "function"
    },
    {
      "inputs": [
        {
          "internalType": "string",
          "name": "poll_id",
          "type": "string"
        },
        {
          "internalType": "uint256",
          "name": "question_id",
          "type": "uint256"
        }
      ],
      "name": "addQuestionToPoll",
      "outputs": [],
      "stateMutability": "nonpayable",
      "type": "function"
    }
  ],
  "bytecode": "0x608060405234801561001057600080fd5b50612a41806100206000396000f3fe608060405234801561001057600080fd5b506004361061007d5760003560e01c806332b633fa1161005b57806332b633fa146100d657806369e2d629146100f4578063ac2f007414610110578063bc4fc98c146101425761007d565b8063023a07a91461008257806304710b661461009e5780631d7251de146100ba575b600080fd5b61009c60048036038101906100979190611c49565b61015e565b005b6100b860048036038101906100b39190611b46565b61030a565b005b6100d460048036038101906100cf9190611bb2565b610406565b005b6100de610548565b6040516100eb9190612533565b60405180910390f35b61010e60048036038101906101099190611ada565b6109df565b005b61012a60048036038101906101259190611d04565b610c77565b60405161013993929190612555565b60405180910390f35b61015c60048036038101906101579190611c9d565b610e49565b005b60008061016a8461114d565b91509150806101ae576040517f08c379a00000000000000000000000000000000000000000000000000000000081526004016101a590612601565b60405180910390fd5b60008083815481106101e9577f4e487b7100000000000000000000000000000000000000000000000000000000600052603260045260246000fd5b906000526020600020906005020160030160018160018154018082558091505003906000526020600020906003020190508381600001819055506040518060200160405280600081525081600101908051906020019061024a929190611736565b5060008381548110610285577f4e487b7100000000000000000000000000000000000000000000000000000000600052603260045260246000fd5b90600052602060002090600502016003018190806001815401808255809150506001900390600052602060002090600302016000909190919091506000820154816000015560018201816001019080546102de9061287b565b6102e99291906117bc565b506002820181600201908054610300929190611849565b5050505050505050565b60018260405161031a91906123d4565b908152602001604051809103902060009054906101000a900460ff1615610376576040517f08c379a000000000000000000000000000000000000000000000000000000000815260040161036d906125e1565b60405180910390fd5b6000806001816001815401808255809150500390600052602060002090600502019050828160000190805190602001906103b1929190611736565b50818160020190805190602001906103ca929190611736565b50600180846040516103dc91906123d4565b908152602001604051809103902060006101000a81548160ff021916908315150217905550505050565b6000806104128561114d565b9150915080610456576040517f08c379a000000000000000000000000000000000000000000000000000000000815260040161044d90612601565b60405180910390fd5b6040518060400160405280600481526020017f6e616d650000000000000000000000000000000000000000000000000000000081525080519060200120848051906020012014156105065782600083815481106104dc577f4e487b7100000000000000000000000000000000000000000000000000000000600052603260045260246000fd5b90600052602060002090600502016001019080519060200190610500929190611736565b50610541565b6040517f08c379a0000000000000000000000000000000000000000000000000000000008152600401610538906125c1565b60405180910390fd5b5050505050565b60606000808054905067ffffffffffffffff811115610590577f4e487b7100000000000000000000000000000000000000000000000000000000600052604160045260246000fd5b6040519080825280602002602001820160405280156105c357816020015b60608152602001906001900390816105ae5790505b50905060005b6000805490508110156109d757600060405180602001604052806000815250905060005b60008381548110610627577f4e487b7100000000000000000000000000000000000000000000000000000000600052603260045260246000fd5b90600052602060002090600502016003018054905081101561087a57600081111561066f578160405160200161065d919061249c565b60405160208183030381529060405291505b600061070d600085815481106106ae577f4e487b7100000000000000000000000000000000000000000000000000000000600052603260045260246000fd5b906000526020600020906005020160030183815481106106f7577f4e487b7100000000000000000000000000000000000000000000000000000000600052603260045260246000fd5b90600052602060002090600302016002016111fc565b9050826107ad6000868154811061074d577f4e487b7100000000000000000000000000000000000000000000000000000000600052603260045260246000fd5b90600052602060002090600502016003018481548110610796577f4e487b7100000000000000000000000000000000000000000000000000000000600052603260045260246000fd5b90600052602060002090600302016000015461132a565b600086815481106107e7577f4e487b7100000000000000000000000000000000000000000000000000000000600052603260045260246000fd5b90600052602060002090600502016003018481548110610830577f4e487b7100000000000000000000000000000000000000000000000000000000600052603260045260246000fd5b9060005260206000209060030201600101836040516020016108559493929190612432565b6040516020818303038152906040529250508080610872906128ad565b9150506105ed565b50600082815481106108b5577f4e487b7100000000000000000000000000000000000000000000000000000000600052603260045260246000fd5b906000526020600020906005020160000160008381548110610900577f4e487b7100000000000000000000000000000000000000000000000000000000600052603260045260246000fd5b90600052602060002090600502016001016000848154811061094b577f4e487b7100000000000000000000000000000000000000000000000000000000600052603260045260246000fd5b90600052602060002090600502016002018360405160200161097094939291906124be565b6040516020818303038152906040528383815181106109b8577f4e487b7100000000000000000000000000000000000000000000000000000000600052603260045260246000fd5b60200260200101819052505080806109cf906128ad565b9150506105c9565b508091505090565b6000806109eb8461114d565b9150915080610a2f576040517f08c379a0000000000000000000000000000000000000000000000000000000008152600401610a2690612601565b60405180910390fd5b60005b8351811015610c7057600080610a8c85878581518110610a7b577f4e487b7100000000000000000000000000000000000000000000000000000000600052603260045260246000fd5b6020026020010151600001516114dd565b9150915080610ad0576040517f08c379a0000000000000000000000000000000000000000000000000000000008152600401610ac7906125a1565b60405180910390fd5b600080610b2287858a8881518110610b11577f4e487b7100000000000000000000000000000000000000000000000000000000600052603260045260246000fd5b602002602001015160200151611605565b9150915080610b66576040517f08c379a0000000000000000000000000000000000000000000000000000000008152600401610b5d90612621565b60405180910390fd5b60008781548110610ba0577f4e487b7100000000000000000000000000000000000000000000000000000000600052603260045260246000fd5b90600052602060002090600502016003018481548110610be9577f4e487b7100000000000000000000000000000000000000000000000000000000600052603260045260246000fd5b90600052602060002090600302016002018281548110610c32577f4e487b7100000000000000000000000000000000000000000000000000000000600052603260045260246000fd5b90600052602060002090600402016003016000815480929190610c54906128ad565b9190505550505050508080610c68906128ad565b915050610a32565b5050505050565b60008181548110610c8757600080fd5b9060005260206000209060050201600091509050806000018054610caa9061287b565b80601f0160208091040260200160405190810160405280929190818152602001828054610cd69061287b565b8015610d235780601f10610cf857610100808354040283529160200191610d23565b820191906000526020600020905b815481529060010190602001808311610d0657829003601f168201915b505050505090806001018054610d389061287b565b80601f0160208091040260200160405190810160405280929190818152602001828054610d649061287b565b8015610db15780601f10610d8657610100808354040283529160200191610db1565b820191906000526020600020905b815481529060010190602001808311610d9457829003601f168201915b505050505090806002018054610dc69061287b565b80601f0160208091040260200160405190810160405280929190818152602001828054610df29061287b565b8015610e3f5780601f10610e1457610100808354040283529160200191610e3f565b820191906000526020600020905b815481529060010190602001808311610e2257829003601f168201915b5050505050905083565b600080610e558561114d565b9150915080610e99576040517f08c379a0000000000000000000000000000000000000000000000000000000008152600401610e9090612601565b60405180910390fd5b600080610ea684876114dd565b9150915080610eea576040517f08c379a0000000000000000000000000000000000000000000000000000000008152600401610ee1906125a1565b60405180910390fd5b6000808581548110610f25577f4e487b7100000000000000000000000000000000000000000000000000000000600052603260045260246000fd5b90600052602060002090600502016003018381548110610f6e577f4e487b7100000000000000000000000000000000000000000000000000000000600052603260045260246000fd5b9060005260206000209060030201600201600181600181540180825580915050039060005260206000209060040201905085816000018190555060008581548110610fe2577f4e487b7100000000000000000000000000000000000000000000000000000000600052603260045260246000fd5b9060005260206000209060050201600301838154811061102b577f4e487b7100000000000000000000000000000000000000000000000000000000600052603260045260246000fd5b90600052602060002090600302016000015481600201819055506000858154811061107f577f4e487b7100000000000000000000000000000000000000000000000000000000600052603260045260246000fd5b906000526020600020906005020160030183815481106110c8577f4e487b7100000000000000000000000000000000000000000000000000000000600052603260045260246000fd5b90600052602060002090600302016002018190806001815401808255809150506001900390600052602060002090600402016000909190919091506000820154816000015560018201816001019080546111219061287b565b61112c9291906117bc565b50600282015481600201556003820154816003015550505050505050505050565b60008060005b6000805490508110156111ee578380519060200120600082815481106111a2577f4e487b7100000000000000000000000000000000000000000000000000000000600052603260045260246000fd5b90600052602060002090600502016000016040516111c091906123bd565b604051809103902014156111db5780600192509250506111f7565b80806111e6906128ad565b915050611153565b50600080915091505b915091565b6060600060405180602001604052806000815250905060005b8380549050811015611320576000811461124c578160405160200161123a919061249c565b60405160208183030381529060405291505b816112a0858381548110611289577f4e487b7100000000000000000000000000000000000000000000000000000000600052603260045260246000fd5b90600052602060002090600402016000015461132a565b8583815481106112d9577f4e487b7100000000000000000000000000000000000000000000000000000000600052603260045260246000fd5b90600052602060002090600402016001016040516020016112fc939291906123eb565b60405160208183030381529060405291508080611318906128ad565b915050611215565b5080915050919050565b60606000821415611372576040518060400160405280600181526020017f300000000000000000000000000000000000000000000000000000000000000081525090506114d8565b600082905060005b600082146113a457808061138d906128ad565b915050600a8261139d91906127ca565b915061137a565b60008167ffffffffffffffff8111156113e6577f4e487b7100000000000000000000000000000000000000000000000000000000600052604160045260246000fd5b6040519080825280601f01601f1916602001820160405280156114185781602001600182028036833780820191505090505b50905060008290505b600086146114d05760018161143691906127fb565b9050600a8661144591906128f6565b60306114519190612774565b60f81b82828151811061148d577f4e487b7100000000000000000000000000000000000000000000000000000000600052603260045260246000fd5b60200101907effffffffffffffffffffffffffffffffffffffffffffffffffffffffffffff1916908160001a905350600a866114c991906127ca565b9550611421565b819450505050505b919050565b60008060005b6000858154811061151d577f4e487b7100000000000000000000000000000000000000000000000000000000600052603260045260246000fd5b9060005260206000209060050201600301805490508110156115f5578360008681548110611574577f4e487b7100000000000000000000000000000000000000000000000000000000600052603260045260246000fd5b906000526020600020906005020160030182815481106115bd577f4e487b7100000000000000000000000000000000000000000000000000000000600052603260045260246000fd5b90600052602060002090600302016000015414156115e25780600192509250506115fe565b80806115ed906128ad565b9150506114e3565b50600080915091505b9250929050565b6000806000808681548110611643577f4e487b7100000000000000000000000000000000000000000000000000000000600052603260045260246000fd5b9060005260206000209060050201600301858154811061168c577f4e487b7100000000000000000000000000000000000000000000000000000000600052603260045260246000fd5b9060005260206000209060030201905060005b816002018054905081101561172457848260020182815481106116eb577f4e487b7100000000000000000000000000000000000000000000000000000000600052603260045260246000fd5b90600052602060002090600402016000015414156117115780600193509350505061172e565b808061171c906128ad565b91505061169f565b5060008092509250505b935093915050565b8280546117429061287b565b90600052602060002090601f01602090048101928261176457600085556117ab565b82601f1061177d57805160ff19168380011785556117ab565b828001600101855582156117ab579182015b828111156117aa57825182559160200191906001019061178f565b5b5090506117b891906118df565b5090565b8280546117c89061287b565b90600052602060002090601f0160209004810192826117ea5760008555611838565b82601f106117fb5780548555611838565b8280016001018555821561183857600052602060002091601f016020900482015b8281111561183757825482559160010191906001019061181c565b5b50905061184591906118df565b5090565b8280548282559060005260206000209060040281019282156118ce5760005260206000209160040282015b828111156118cd57828260008201548160000155600182018160010190805461189c9061287b565b6118a79291906117bc565b506002820154816002015560038201548160030155505091600401919060040190611874565b5b5090506118db91906118fc565b5090565b5b808211156118f85760008160009055506001016118e0565b5090565b5b808211156119375760008082016000905560018201600061191e919061193b565b60028201600090556003820160009055506004016118fd565b5090565b5080546119479061287b565b6000825580601f106119595750611978565b601f01602090049060005260206000209081019061197791906118df565b5b50565b600061198e61198984612672565b612641565b905080838252602082019050828560408602820111156119ad57600080fd5b60005b858110156119dd57816119c38882611a79565b8452602084019350604083019250506001810190506119b0565b5050509392505050565b60006119fa6119f58461269e565b612641565b905082815260208101848484011115611a1257600080fd5b611a1d848285612839565b509392505050565b600082601f830112611a3657600080fd5b8135611a4684826020860161197b565b91505092915050565b600082601f830112611a6057600080fd5b8135611a708482602086016119e7565b91505092915050565b600060408284031215611a8b57600080fd5b611a956040612641565b90506000611aa584828501611ac5565b6000830152506020611ab984828501611ac5565b60208301525092915050565b600081359050611ad4816129f4565b92915050565b60008060408385031215611aed57600080fd5b600083013567ffffffffffffffff811115611b0757600080fd5b611b1385828601611a4f565b925050602083013567ffffffffffffffff811115611b3057600080fd5b611b3c85828601611a25565b9150509250929050565b60008060408385031215611b5957600080fd5b600083013567ffffffffffffffff811115611b7357600080fd5b611b7f85828601611a4f565b925050602083013567ffffffffffffffff811115611b9c57600080fd5b611ba885828601611a4f565b9150509250929050565b600080600060608486031215611bc757600080fd5b600084013567ffffffffffffffff811115611be157600080fd5b611bed86828701611a4f565b935050602084013567ffffffffffffffff811115611c0a57600080fd5b611c1686828701611a4f565b925050604084013567ffffffffffffffff811115611c3357600080fd5b611c3f86828701611a4f565b9150509250925092565b60008060408385031215611c5c57600080fd5b600083013567ffffffffffffffff811115611c7657600080fd5b611c8285828601611a4f565b9250506020611c9385828601611ac5565b9150509250929050565b600080600060608486031215611cb257600080fd5b600084013567ffffffffffffffff811115611ccc57600080fd5b611cd886828701611a4f565b9350506020611ce986828701611ac5565b9250506040611cfa86828701611ac5565b9150509250925092565b600060208284031215611d1657600080fd5b6000611d2484828501611ac5565b91505092915050565b6000611d398383611e35565b905092915050565b6000611d4c82612708565b611d56818561272b565b935083602082028501611d68856126ce565b8060005b85811015611da45784840389528151611d858582611d2d565b9450611d908361271e565b925060208a01995050600181019050611d6c565b50829750879550505050505092915050565b60008154611dc38161287b565b611dcd818661273c565b94506001821660008114611de85760018114611df957611e2c565b60ff19831686528186019350611e2c565b611e02856126de565b60005b83811015611e2457815481890152600182019150602081019050611e05565b838801955050505b50505092915050565b6000611e4082612713565b611e4a8185612747565b9350611e5a818560208601612848565b611e63816129e3565b840191505092915050565b6000611e7982612713565b611e838185612758565b9350611e93818560208601612848565b611e9c816129e3565b840191505092915050565b6000611eb282612713565b611ebc8185612769565b9350611ecc818560208601612848565b80840191505092915050565b60008154611ee58161287b565b611eef8186612769565b94506001821660008114611f0a5760018114611f1b57611f4e565b60ff19831686528186019350611f4e565b611f24856126f3565b60005b83811015611f4657815481890152600182019150602081019050611f27565b838801955050505b50505092915050565b6000611f64601283612758565b91507f5175657374696f6e206e6f7420666f756e6400000000000000000000000000006000830152602082019050919050565b6000611fa4601483612758565b91507f4669656c64206e6f74207265636f676e697a65640000000000000000000000006000830152602082019050919050565b6000611fe4600683612769565b91507f7b4149443a2000000000000000000000000000000000000000000000000000006000830152600682019050919050565b6000612024602183612758565b91507f506f6c6c2077697468207468697320494420616c72656164792065786973747360008301527f2e000000000000000000000000000000000000000000000000000000000000006020830152604082019050919050565b600061208a600883612769565b91507f2c204e616d653a200000000000000000000000000000000000000000000000006000830152600882019050919050565b60006120ca600983612769565b91507f2c20414e616d653a2000000000000000000000000000000000000000000000006000830152600982019050919050565b600061210a600883612769565b91507f2c20547970653a200000000000000000000000000000000000000000000000006000830152600882019050919050565b600061214a600e83612769565b91507f2c205175657374696f6e733a205b0000000000000000000000000000000000006000830152600e82019050919050565b600061218a600983612769565b91507f2c20514e616d653a2000000000000000000000000000000000000000000000006000830152600982019050919050565b60006121ca600e83612758565b91507f506f6c6c206e6f7420666f756e640000000000000000000000000000000000006000830152602082019050919050565b600061220a601783612758565b91507f416e73776572206f7074696f6e206e6f7420666f756e640000000000000000006000830152602082019050919050565b600061224a600683612769565b91507f7b5149443a2000000000000000000000000000000000000000000000000000006000830152600682019050919050565b600061228a600283612769565b91507f5d7d0000000000000000000000000000000000000000000000000000000000006000830152600282019050919050565b60006122ca600183612769565b91507f5d000000000000000000000000000000000000000000000000000000000000006000830152600182019050919050565b600061230a600283612769565b91507f2c200000000000000000000000000000000000000000000000000000000000006000830152600282019050919050565b600061234a600c83612769565b91507f2c20416e73776572733a205b00000000000000000000000000000000000000006000830152600c82019050919050565b600061238a600983612769565b91507f506f6c6c2049443a2000000000000000000000000000000000000000000000006000830152600982019050919050565b60006123c98284611db6565b915081905092915050565b60006123e08284611ea7565b915081905092915050565b60006123f78286611ea7565b915061240282611fd7565b915061240e8285611ea7565b9150612419826120bd565b91506124258284611ed8565b9150819050949350505050565b600061243e8287611ea7565b91506124498261223d565b91506124558286611ea7565b91506124608261217d565b915061246c8285611ed8565b91506124778261233d565b91506124838284611ea7565b915061248e8261227d565b915081905095945050505050565b60006124a88284611ea7565b91506124b3826122fd565b915081905092915050565b60006124c98261237d565b91506124d58287611ed8565b91506124e08261207d565b91506124ec8286611ed8565b91506124f7826120fd565b91506125038285611ed8565b915061250e8261213d565b915061251a8284611ea7565b9150612525826122bd565b915081905095945050505050565b6000602082019050818103600083015261254d8184611d41565b905092915050565b6000606082019050818103600083015261256f8186611e6e565b905081810360208301526125838185611e6e565b905081810360408301526125978184611e6e565b9050949350505050565b600060208201905081810360008301526125ba81611f57565b9050919050565b600060208201905081810360008301526125da81611f97565b9050919050565b600060208201905081810360008301526125fa81612017565b9050919050565b6000602082019050818103600083015261261a816121bd565b9050919050565b6000602082019050818103600083015261263a816121fd565b9050919050565b6000604051905081810181811067ffffffffffffffff82111715612668576126676129b4565b5b8060405250919050565b600067ffffffffffffffff82111561268d5761268c6129b4565b5b602082029050602081019050919050565b600067ffffffffffffffff8211156126b9576126b86129b4565b5b601f19601f8301169050602081019050919050565b6000819050602082019050919050565b60008190508160005260206000209050919050565b60008190508160005260206000209050919050565b600081519050919050565b600081519050919050565b6000602082019050919050565b600082825260208201905092915050565b600081905092915050565b600082825260208201905092915050565b600082825260208201905092915050565b600081905092915050565b600061277f8261282f565b915061278a8361282f565b9250827fffffffffffffffffffffffffffffffffffffffffffffffffffffffffffffffff038211156127bf576127be612927565b5b828201905092915050565b60006127d58261282f565b91506127e08361282f565b9250826127f0576127ef612956565b5b828204905092915050565b60006128068261282f565b91506128118361282f565b92508282101561282457612823612927565b5b828203905092915050565b6000819050919050565b82818337600083830152505050565b60005b8381101561286657808201518184015260208101905061284b565b83811115612875576000848401525b50505050565b6000600282049050600182168061289357607f821691505b602082108114156128a7576128a6612985565b5b50919050565b60006128b88261282f565b91507fffffffffffffffffffffffffffffffffffffffffffffffffffffffffffffffff8214156128eb576128ea612927565b5b600182019050919050565b60006129018261282f565b915061290c8361282f565b92508261291c5761291b612956565b5b828206905092915050565b7f4e487b7100000000000000000000000000000000000000000000000000000000600052601160045260246000fd5b7f4e487b7100000000000000000000000000000000000000000000000000000000600052601260045260246000fd5b7f4e487b7100000000000000000000000000000000000000000000000000000000600052602260045260246000fd5b7f4e487b7100000000000000000000000000000000000000000000000000000000600052604160045260246000fd5b6000601f19601f8301169050919050565b6129fd8161282f565b8114612a0857600080fd5b5056fea2646970667358221220d79de88c819d6ee2f37fafb0832616bbee46b4c5fde7ce261ed465878c873c4c64736f6c63430008000033",
  "immutableReferences": {},
  "source": "// SPDX-License-Identifier: MIT\npragma solidity ^0.8.0;\n\ncontract MiniPoll { \n    struct VoteInput {\n        uint question;\n        uint answer_option;\n    }\n\n    struct AnswerOption{\n        uint id;\n        string name;\n        uint question;\n        uint votes;\n    }\n\n    struct Question {\n        uint id;\n        string name;\n        AnswerOption[] answer_options;\n    }\n\n    struct Poll {\n        string poll_id;\n        string name;\n        string poll_type;\n        Question[] questions;\n        string[] options;\n    }\n\n    Poll[] public polls;\n    mapping(string => bool) private existingPollIDs;\n\n     function vote(string memory poll_id, VoteInput[] memory votes) public {\n        (uint pollIndex, bool found) = findPollIndex(poll_id);\n        require(found, \"Poll not found\");\n\n        for (uint i = 0; i < votes.length; i++) {\n            (uint questionIndex, bool questionFound) = findQuestionIndex(pollIndex, votes[i].question);\n            require(questionFound, \"Question not found\");\n\n            (uint answerIndex, bool answerFound) = findAnswerIndex(pollIndex, questionIndex, votes[i].answer_option);\n            require(answerFound, \"Answer option not found\");\n\n            polls[pollIndex].questions[questionIndex].answer_options[answerIndex].votes++;\n        }\n    }\n\n    function findAnswerIndex(uint pollIndex, uint questionIndex, uint answerId) private view returns (uint, bool) {\n        Question storage question = polls[pollIndex].questions[questionIndex];\n        for (uint i = 0; i < question.answer_options.length; i++) {\n            if (question.answer_options[i].id == answerId) {\n                return (i, true);\n            }\n        }\n        return (0, false);\n    }\n\n\n    function createPoll(string memory poll_id, string memory poll_type) public {\n        require(!existingPollIDs[poll_id], \"Poll with this ID already exists.\");\n\n        Poll storage newPoll = polls.push();\n        newPoll.poll_id = poll_id;\n        newPoll.poll_type = poll_type;\n        \n        existingPollIDs[poll_id] = true;\n    }\n\n    function patchPoll(string memory poll_id, string memory field, string memory value) public {\n        (uint index, bool found) = findPollIndex(poll_id);\n        require(found, \"Poll not found\");\n\n         if (keccak256(bytes(field)) == keccak256(bytes(\"name\"))) {\n            polls[index].name = value;\n        } else {\n            revert(\"Field not recognized\");\n        }\n    }\n\n    function findPollIndex(string memory poll_id) private view returns (uint, bool) {\n        for (uint i = 0; i < polls.length; i++) {\n            if (keccak256(bytes(polls[i].poll_id)) == keccak256(bytes(poll_id))) {\n                return (i, true);\n            }\n        }\n        return (0, false);\n    }\n\n    function uintToString(uint _i) internal pure returns (string memory _uintAsString) {\n        if (_i == 0) {\n            return \"0\";\n        }\n        uint j = _i;\n        uint len;\n        while (j != 0) {\n            len++;\n            j /= 10;\n        }\n        bytes memory bstr = new bytes(len);\n        uint k = len;\n        while (_i != 0) {\n            k = k - 1;\n            bstr[k] = bytes1(uint8(48 + _i % 10));\n            _i /= 10;\n        }\n        return string(bstr);\n    }\n\nfunction getAllPolls() public view returns (string[] memory) {\n    string[] memory allPolls = new string[](polls.length);\n    for (uint i = 0; i < polls.length; i++) {\n        string memory questionDetails = \"\";\n        for (uint j = 0; j < polls[i].questions.length; j++) {\n            if (j > 0) {\n                questionDetails = string(abi.encodePacked(questionDetails, \", \"));\n            }\n            string memory answersDetails = formatAnswers(polls[i].questions[j].answer_options);\n            questionDetails = string(abi.encodePacked(questionDetails, \"{QID: \", uintToString(polls[i].questions[j].id),\n                \", QName: \", polls[i].questions[j].name, \", Answers: [\", answersDetails, \"]}\"));\n        }\n        allPolls[i] = string(abi.encodePacked(\"Poll ID: \", polls[i].poll_id, \", Name: \", polls[i].name,\n            \", Type: \", polls[i].poll_type, \", Questions: [\", questionDetails, \"]\"));\n    }\n    return allPolls;\n}\n\n    function formatAnswers(AnswerOption[] storage answers) private view returns (string memory) {\n        string memory details = \"\";\n        for (uint k = 0; k < answers.length; k++) {\n            if (k != 0) {\n                details = string(abi.encodePacked(details, \", \"));\n            }\n            details = string(abi.encodePacked(details, \"{AID: \", uintToString(answers[k].id), \", AName: \", answers[k].name));\n        }\n        return details;\n    }\n\n\n     function findQuestionIndex(uint pollIndex, uint question_id) private view returns (uint, bool) {\n        for (uint i = 0; i < polls[pollIndex].questions.length; i++) {\n            if (polls[pollIndex].questions[i].id == question_id) {\n                return (i, true);\n            }\n        }\n        return (0, false);\n    }\n\n    function addAnswerToQuestion(string memory poll_id, uint question_id, uint ans_id) public {\n        (uint pollIndex, bool pollFound) = findPollIndex(poll_id);\n        require(pollFound, \"Poll not found\");\n\n        (uint questionIndex, bool questionFound) = findQuestionIndex(pollIndex, question_id);\n        require(questionFound, \"Question not found\");\n\n        AnswerOption storage newAnswer = polls[pollIndex].questions[questionIndex].answer_options.push();\n\n        newAnswer.id = ans_id;\n        newAnswer.question = polls[pollIndex].questions[questionIndex].id;\n\n        polls[pollIndex].questions[questionIndex].answer_options.push(newAnswer);\n    }\n    \n\n    function addQuestionToPoll(string memory poll_id, uint question_id) public {\n        (uint pollIndex, bool found) = findPollIndex(poll_id);\n        require(found, \"Poll not found\");\n\n        Question storage newQuestion = polls[pollIndex].questions.push();\n        newQuestion.id = question_id; \n        newQuestion.name = \"\";\n\n        polls[pollIndex].questions.push(newQuestion);\n    }\n\n}\n",
  "sourcePath": "/Users/alexandr/Documents/QPole-PSU/blockchain/contracts/SimpleStorage.sol",
  "compiler": {
    "name": "solc",
    "version": "0.8.0+commit.c7dfd78e.Emscripten.clang"
  },
  "schemaVersion": "3.4.16",
  "updatedAt": "2024-04-25T14:46:24.340Z",
  "networkType": "ethereum",
  "devdoc": {
    "kind": "dev",
    "methods": {},
    "version": 1
  },
  "userdoc": {
    "kind": "user",
    "methods": {},
    "version": 1
  }
}