{
  "contractName": "MiniPoll",
  "abi": [
    {
      "inputs": [
        {
          "internalType": "uint256",
          "name": "",
          "type": "uint256"
        }
      ],
      "name": "polls",
      "outputs": [
        {
          "internalType": "string",
          "name": "poll_id",
          "type": "string"
        },
        {
          "internalType": "string",
          "name": "name",
          "type": "string"
        },
        {
          "internalType": "string",
          "name": "poll_type",
          "type": "string"
        }
      ],
      "stateMutability": "view",
      "type": "function",
      "constant": true
    },
    {
      "inputs": [
        {
          "internalType": "string",
          "name": "poll_id",
          "type": "string"
        },
        {
          "components": [
            {
              "internalType": "uint256",
              "name": "question",
              "type": "uint256"
            },
            {
              "internalType": "uint256",
              "name": "answer_option",
              "type": "uint256"
            },
            {
              "internalType": "string",
              "name": "text",
              "type": "string"
            }
          ],
          "internalType": "struct MiniPoll.VoteInput[]",
          "name": "votes",
          "type": "tuple[]"
        }
      ],
      "name": "vote",
      "outputs": [],
      "stateMutability": "nonpayable",
      "type": "function"
    },
    {
      "inputs": [
        {
          "internalType": "string",
          "name": "poll_id",
          "type": "string"
        },
        {
          "internalType": "string",
          "name": "poll_type",
          "type": "string"
        }
      ],
      "name": "createPoll",
      "outputs": [],
      "stateMutability": "nonpayable",
      "type": "function"
    },
    {
      "inputs": [
        {
          "internalType": "string",
          "name": "poll_id",
          "type": "string"
        },
        {
          "internalType": "string",
          "name": "field",
          "type": "string"
        },
        {
          "internalType": "string",
          "name": "value",
          "type": "string"
        }
      ],
      "name": "patchPoll",
      "outputs": [],
      "stateMutability": "nonpayable",
      "type": "function"
    },
    {
      "inputs": [],
      "name": "getAllPolls",
      "outputs": [
        {
          "internalType": "string[]",
          "name": "",
          "type": "string[]"
        }
      ],
      "stateMutability": "view",
      "type": "function",
      "constant": true
    },
    {
      "inputs": [
        {
          "internalType": "string",
          "name": "poll_id",
          "type": "string"
        },
        {
          "internalType": "uint256",
          "name": "question_id",
          "type": "uint256"
        }
      ],
      "name": "addAnswerToQuestion",
      "outputs": [],
      "stateMutability": "nonpayable",
      "type": "function"
    },
    {
      "inputs": [
        {
          "internalType": "string",
          "name": "poll_id",
          "type": "string"
        }
      ],
      "name": "addQuestionToPoll",
      "outputs": [],
      "stateMutability": "nonpayable",
      "type": "function"
    }
  ],
  "bytecode": "0x60806040526000600155600060025534801561001a57600080fd5b50612a898061002a6000396000f3fe608060405234801561001057600080fd5b506004361061007d5760003560e01c806332b633fa1161005b57806332b633fa146100d6578063ac2f0074146100f4578063ce19054f14610126578063d0440e1f146101425761007d565b806304710b661461008257806315a02a8d1461009e5780631d7251de146100ba575b600080fd5b61009c60048036038101906100979190611bf5565b61015e565b005b6100b860048036038101906100b39190611b89565b61025b565b005b6100d460048036038101906100cf9190611c61565b6104f3565b005b6100de610635565b6040516100eb919061257b565b60405180910390f35b61010e60048036038101906101099190611d4c565b610acc565b60405161011d9392919061259d565b60405180910390f35b610140600480360381019061013b9190611b48565b610c9e565b005b61015c60048036038101906101579190611cf8565b610e85565b005b60038260405161016e919061241c565b908152602001604051809103902060009054906101000a900460ff16156101ca576040517f08c379a00000000000000000000000000000000000000000000000000000000081526004016101c190612629565b60405180910390fd5b600080600181600181540180825580915050039060005260206000209060050201905082816000019080519060200190610205929190611787565b508181600201908051906020019061021e929190611787565b506001600384604051610231919061241c565b908152602001604051809103902060006101000a81548160ff021916908315150217905550505050565b6000806102678461119e565b91509150806102ab576040517f08c379a00000000000000000000000000000000000000000000000000000000081526004016102a290612649565b60405180910390fd5b60005b83518110156104ec57600080610308858785815181106102f7577f4e487b7100000000000000000000000000000000000000000000000000000000600052603260045260246000fd5b60200260200101516000015161124d565b915091508061034c576040517f08c379a0000000000000000000000000000000000000000000000000000000008152600401610343906125e9565b60405180910390fd5b60008061039e87858a888151811061038d577f4e487b7100000000000000000000000000000000000000000000000000000000600052603260045260246000fd5b602002602001015160200151611375565b91509150806103e2576040517f08c379a00000000000000000000000000000000000000000000000000000000081526004016103d990612669565b60405180910390fd5b6000878154811061041c577f4e487b7100000000000000000000000000000000000000000000000000000000600052603260045260246000fd5b90600052602060002090600502016003018481548110610465577f4e487b7100000000000000000000000000000000000000000000000000000000600052603260045260246000fd5b906000526020600020906003020160020182815481106104ae577f4e487b7100000000000000000000000000000000000000000000000000000000600052603260045260246000fd5b906000526020600020906004020160030160008154809291906104d0906128f5565b91905055505050505080806104e4906128f5565b9150506102ae565b5050505050565b6000806104ff8561119e565b9150915080610543576040517f08c379a000000000000000000000000000000000000000000000000000000000815260040161053a90612649565b60405180910390fd5b6040518060400160405280600481526020017f6e616d650000000000000000000000000000000000000000000000000000000081525080519060200120848051906020012014156105f35782600083815481106105c9577f4e487b7100000000000000000000000000000000000000000000000000000000600052603260045260246000fd5b906000526020600020906005020160010190805190602001906105ed929190611787565b5061062e565b6040517f08c379a000000000000000000000000000000000000000000000000000000000815260040161062590612609565b60405180910390fd5b5050505050565b60606000808054905067ffffffffffffffff81111561067d577f4e487b7100000000000000000000000000000000000000000000000000000000600052604160045260246000fd5b6040519080825280602002602001820160405280156106b057816020015b606081526020019060019003908161069b5790505b50905060005b600080549050811015610ac457600060405180602001604052806000815250905060005b60008381548110610714577f4e487b7100000000000000000000000000000000000000000000000000000000600052603260045260246000fd5b90600052602060002090600502016003018054905081101561096757600081111561075c578160405160200161074a91906124e4565b60405160208183030381529060405291505b60006107fa6000858154811061079b577f4e487b7100000000000000000000000000000000000000000000000000000000600052603260045260246000fd5b906000526020600020906005020160030183815481106107e4577f4e487b7100000000000000000000000000000000000000000000000000000000600052603260045260246000fd5b90600052602060002090600302016002016114a6565b90508261089a6000868154811061083a577f4e487b7100000000000000000000000000000000000000000000000000000000600052603260045260246000fd5b90600052602060002090600502016003018481548110610883577f4e487b7100000000000000000000000000000000000000000000000000000000600052603260045260246000fd5b9060005260206000209060030201600001546115d4565b600086815481106108d4577f4e487b7100000000000000000000000000000000000000000000000000000000600052603260045260246000fd5b9060005260206000209060050201600301848154811061091d577f4e487b7100000000000000000000000000000000000000000000000000000000600052603260045260246000fd5b906000526020600020906003020160010183604051602001610942949392919061247a565b604051602081830303815290604052925050808061095f906128f5565b9150506106da565b50600082815481106109a2577f4e487b7100000000000000000000000000000000000000000000000000000000600052603260045260246000fd5b9060005260206000209060050201600001600083815481106109ed577f4e487b7100000000000000000000000000000000000000000000000000000000600052603260045260246000fd5b906000526020600020906005020160010160008481548110610a38577f4e487b7100000000000000000000000000000000000000000000000000000000600052603260045260246000fd5b906000526020600020906005020160020183604051602001610a5d9493929190612506565b604051602081830303815290604052838381518110610aa5577f4e487b7100000000000000000000000000000000000000000000000000000000600052603260045260246000fd5b6020026020010181905250508080610abc906128f5565b9150506106b6565b508091505090565b60008181548110610adc57600080fd5b9060005260206000209060050201600091509050806000018054610aff906128c3565b80601f0160208091040260200160405190810160405280929190818152602001828054610b2b906128c3565b8015610b785780601f10610b4d57610100808354040283529160200191610b78565b820191906000526020600020905b815481529060010190602001808311610b5b57829003601f168201915b505050505090806001018054610b8d906128c3565b80601f0160208091040260200160405190810160405280929190818152602001828054610bb9906128c3565b8015610c065780601f10610bdb57610100808354040283529160200191610c06565b820191906000526020600020905b815481529060010190602001808311610be957829003601f168201915b505050505090806002018054610c1b906128c3565b80601f0160208091040260200160405190810160405280929190818152602001828054610c47906128c3565b8015610c945780601f10610c6957610100808354040283529160200191610c94565b820191906000526020600020905b815481529060010190602001808311610c7757829003601f168201915b5050505050905083565b600080610caa8361119e565b9150915080610cee576040517f08c379a0000000000000000000000000000000000000000000000000000000008152600401610ce590612649565b60405180910390fd5b6000808381548110610d29577f4e487b7100000000000000000000000000000000000000000000000000000000600052603260045260246000fd5b9060005260206000209060050201600301600181600181540180825580915050039060005260206000209060030201905060016000815480929190610d6d906128f5565b9190505581600001819055506040518060400160405280600f81526020017f5465737420717565206e616d6520310000000000000000000000000000000000815250816001019080519060200190610dc6929190611787565b5060008381548110610e01577f4e487b7100000000000000000000000000000000000000000000000000000000600052603260045260246000fd5b9060005260206000209060050201600301819080600181540180825580915050600190039060005260206000209060030201600090919091909150600082015481600001556001820181600101908054610e5a906128c3565b610e6592919061180d565b506002820181600201908054610e7c92919061189a565b50505050505050565b600080610e918461119e565b9150915080610ed5576040517f08c379a0000000000000000000000000000000000000000000000000000000008152600401610ecc90612649565b60405180910390fd5b600080610ee2848661124d565b9150915080610f26576040517f08c379a0000000000000000000000000000000000000000000000000000000008152600401610f1d906125e9565b60405180910390fd5b6000808581548110610f61577f4e487b7100000000000000000000000000000000000000000000000000000000600052603260045260246000fd5b90600052602060002090600502016003018381548110610faa577f4e487b7100000000000000000000000000000000000000000000000000000000600052603260045260246000fd5b9060005260206000209060030201600201600181600181540180825580915050039060005260206000209060040201905060026000815480929190610fee906128f5565b91905055816000018190555060008581548110611034577f4e487b7100000000000000000000000000000000000000000000000000000000600052603260045260246000fd5b9060005260206000209060050201600301838154811061107d577f4e487b7100000000000000000000000000000000000000000000000000000000600052603260045260246000fd5b9060005260206000209060030201600001548160020181905550600085815481106110d1577f4e487b7100000000000000000000000000000000000000000000000000000000600052603260045260246000fd5b9060005260206000209060050201600301838154811061111a577f4e487b7100000000000000000000000000000000000000000000000000000000600052603260045260246000fd5b9060005260206000209060030201600201819080600181540180825580915050600190039060005260206000209060040201600090919091909150600082015481600001556001820181600101908054611173906128c3565b61117e92919061180d565b506002820154816002015560038201548160030155505050505050505050565b60008060005b60008054905081101561123f578380519060200120600082815481106111f3577f4e487b7100000000000000000000000000000000000000000000000000000000600052603260045260246000fd5b90600052602060002090600502016000016040516112119190612405565b6040518091039020141561122c578060019250925050611248565b8080611237906128f5565b9150506111a4565b50600080915091505b915091565b60008060005b6000858154811061128d577f4e487b7100000000000000000000000000000000000000000000000000000000600052603260045260246000fd5b9060005260206000209060050201600301805490508110156113655783600086815481106112e4577f4e487b7100000000000000000000000000000000000000000000000000000000600052603260045260246000fd5b9060005260206000209060050201600301828154811061132d577f4e487b7100000000000000000000000000000000000000000000000000000000600052603260045260246000fd5b906000526020600020906003020160000154141561135257806001925092505061136e565b808061135d906128f5565b915050611253565b50600080915091505b9250929050565b60008060008086815481106113b3577f4e487b7100000000000000000000000000000000000000000000000000000000600052603260045260246000fd5b906000526020600020906005020160030185815481106113fc577f4e487b7100000000000000000000000000000000000000000000000000000000600052603260045260246000fd5b9060005260206000209060030201905060005b8160020180549050811015611494578482600201828154811061145b577f4e487b7100000000000000000000000000000000000000000000000000000000600052603260045260246000fd5b90600052602060002090600402016000015414156114815780600193509350505061149e565b808061148c906128f5565b91505061140f565b5060008092509250505b935093915050565b6060600060405180602001604052806000815250905060005b83805490508110156115ca57600081146114f657816040516020016114e491906124e4565b60405160208183030381529060405291505b8161154a858381548110611533577f4e487b7100000000000000000000000000000000000000000000000000000000600052603260045260246000fd5b9060005260206000209060040201600001546115d4565b858381548110611583577f4e487b7100000000000000000000000000000000000000000000000000000000600052603260045260246000fd5b90600052602060002090600402016001016040516020016115a693929190612433565b604051602081830303815290604052915080806115c2906128f5565b9150506114bf565b5080915050919050565b6060600082141561161c576040518060400160405280600181526020017f30000000000000000000000000000000000000000000000000000000000000008152509050611782565b600082905060005b6000821461164e578080611637906128f5565b915050600a826116479190612812565b9150611624565b60008167ffffffffffffffff811115611690577f4e487b7100000000000000000000000000000000000000000000000000000000600052604160045260246000fd5b6040519080825280601f01601f1916602001820160405280156116c25781602001600182028036833780820191505090505b50905060008290505b6000861461177a576001816116e09190612843565b9050600a866116ef919061293e565b60306116fb91906127bc565b60f81b828281518110611737577f4e487b7100000000000000000000000000000000000000000000000000000000600052603260045260246000fd5b60200101907effffffffffffffffffffffffffffffffffffffffffffffffffffffffffffff1916908160001a905350600a866117739190612812565b95506116cb565b819450505050505b919050565b828054611793906128c3565b90600052602060002090601f0160209004810192826117b557600085556117fc565b82601f106117ce57805160ff19168380011785556117fc565b828001600101855582156117fc579182015b828111156117fb5782518255916020019190600101906117e0565b5b5090506118099190611930565b5090565b828054611819906128c3565b90600052602060002090601f01602090048101928261183b5760008555611889565b82601f1061184c5780548555611889565b8280016001018555821561188957600052602060002091601f016020900482015b8281111561188857825482559160010191906001019061186d565b5b5090506118969190611930565b5090565b82805482825590600052602060002090600402810192821561191f5760005260206000209160040282015b8281111561191e5782826000820154816000015560018201816001019080546118ed906128c3565b6118f892919061180d565b5060028201548160020155600382015481600301555050916004019190600401906118c5565b5b50905061192c919061194d565b5090565b5b80821115611949576000816000905550600101611931565b5090565b5b808211156119885760008082016000905560018201600061196f919061198c565b600282016000905560038201600090555060040161194e565b5090565b508054611998906128c3565b6000825580601f106119aa57506119c9565b601f0160209004906000526020600020908101906119c89190611930565b5b50565b60006119df6119da846126ba565b612689565b9050808382526020820190508260005b85811015611a1f5781358501611a058882611abb565b8452602084019350602083019250506001810190506119ef565b5050509392505050565b6000611a3c611a37846126e6565b612689565b905082815260208101848484011115611a5457600080fd5b611a5f848285612881565b509392505050565b600082601f830112611a7857600080fd5b8135611a888482602086016119cc565b91505092915050565b600082601f830112611aa257600080fd5b8135611ab2848260208601611a29565b91505092915050565b600060608284031215611acd57600080fd5b611ad76060612689565b90506000611ae784828501611b33565b6000830152506020611afb84828501611b33565b602083015250604082013567ffffffffffffffff811115611b1b57600080fd5b611b2784828501611a91565b60408301525092915050565b600081359050611b4281612a3c565b92915050565b600060208284031215611b5a57600080fd5b600082013567ffffffffffffffff811115611b7457600080fd5b611b8084828501611a91565b91505092915050565b60008060408385031215611b9c57600080fd5b600083013567ffffffffffffffff811115611bb657600080fd5b611bc285828601611a91565b925050602083013567ffffffffffffffff811115611bdf57600080fd5b611beb85828601611a67565b9150509250929050565b60008060408385031215611c0857600080fd5b600083013567ffffffffffffffff811115611c2257600080fd5b611c2e85828601611a91565b925050602083013567ffffffffffffffff811115611c4b57600080fd5b611c5785828601611a91565b9150509250929050565b600080600060608486031215611c7657600080fd5b600084013567ffffffffffffffff811115611c9057600080fd5b611c9c86828701611a91565b935050602084013567ffffffffffffffff811115611cb957600080fd5b611cc586828701611a91565b925050604084013567ffffffffffffffff811115611ce257600080fd5b611cee86828701611a91565b9150509250925092565b60008060408385031215611d0b57600080fd5b600083013567ffffffffffffffff811115611d2557600080fd5b611d3185828601611a91565b9250506020611d4285828601611b33565b9150509250929050565b600060208284031215611d5e57600080fd5b6000611d6c84828501611b33565b91505092915050565b6000611d818383611e7d565b905092915050565b6000611d9482612750565b611d9e8185612773565b935083602082028501611db085612716565b8060005b85811015611dec5784840389528151611dcd8582611d75565b9450611dd883612766565b925060208a01995050600181019050611db4565b50829750879550505050505092915050565b60008154611e0b816128c3565b611e158186612784565b94506001821660008114611e305760018114611e4157611e74565b60ff19831686528186019350611e74565b611e4a85612726565b60005b83811015611e6c57815481890152600182019150602081019050611e4d565b838801955050505b50505092915050565b6000611e888261275b565b611e92818561278f565b9350611ea2818560208601612890565b611eab81612a2b565b840191505092915050565b6000611ec18261275b565b611ecb81856127a0565b9350611edb818560208601612890565b611ee481612a2b565b840191505092915050565b6000611efa8261275b565b611f0481856127b1565b9350611f14818560208601612890565b80840191505092915050565b60008154611f2d816128c3565b611f3781866127b1565b94506001821660008114611f525760018114611f6357611f96565b60ff19831686528186019350611f96565b611f6c8561273b565b60005b83811015611f8e57815481890152600182019150602081019050611f6f565b838801955050505b50505092915050565b6000611fac6012836127a0565b91507f5175657374696f6e206e6f7420666f756e6400000000000000000000000000006000830152602082019050919050565b6000611fec6014836127a0565b91507f4669656c64206e6f74207265636f676e697a65640000000000000000000000006000830152602082019050919050565b600061202c6006836127b1565b91507f7b4149443a2000000000000000000000000000000000000000000000000000006000830152600682019050919050565b600061206c6021836127a0565b91507f506f6c6c2077697468207468697320494420616c72656164792065786973747360008301527f2e000000000000000000000000000000000000000000000000000000000000006020830152604082019050919050565b60006120d26008836127b1565b91507f2c204e616d653a200000000000000000000000000000000000000000000000006000830152600882019050919050565b60006121126009836127b1565b91507f2c20414e616d653a2000000000000000000000000000000000000000000000006000830152600982019050919050565b60006121526008836127b1565b91507f2c20547970653a200000000000000000000000000000000000000000000000006000830152600882019050919050565b6000612192600e836127b1565b91507f2c205175657374696f6e733a205b0000000000000000000000000000000000006000830152600e82019050919050565b60006121d26009836127b1565b91507f2c20514e616d653a2000000000000000000000000000000000000000000000006000830152600982019050919050565b6000612212600e836127a0565b91507f506f6c6c206e6f7420666f756e640000000000000000000000000000000000006000830152602082019050919050565b60006122526017836127a0565b91507f416e73776572206f7074696f6e206e6f7420666f756e640000000000000000006000830152602082019050919050565b60006122926006836127b1565b91507f7b5149443a2000000000000000000000000000000000000000000000000000006000830152600682019050919050565b60006122d26002836127b1565b91507f5d7d0000000000000000000000000000000000000000000000000000000000006000830152600282019050919050565b60006123126001836127b1565b91507f5d000000000000000000000000000000000000000000000000000000000000006000830152600182019050919050565b60006123526002836127b1565b91507f2c200000000000000000000000000000000000000000000000000000000000006000830152600282019050919050565b6000612392600c836127b1565b91507f2c20416e73776572733a205b00000000000000000000000000000000000000006000830152600c82019050919050565b60006123d26009836127b1565b91507f506f6c6c2049443a2000000000000000000000000000000000000000000000006000830152600982019050919050565b60006124118284611dfe565b915081905092915050565b60006124288284611eef565b915081905092915050565b600061243f8286611eef565b915061244a8261201f565b91506124568285611eef565b915061246182612105565b915061246d8284611f20565b9150819050949350505050565b60006124868287611eef565b915061249182612285565b915061249d8286611eef565b91506124a8826121c5565b91506124b48285611f20565b91506124bf82612385565b91506124cb8284611eef565b91506124d6826122c5565b915081905095945050505050565b60006124f08284611eef565b91506124fb82612345565b915081905092915050565b6000612511826123c5565b915061251d8287611f20565b9150612528826120c5565b91506125348286611f20565b915061253f82612145565b915061254b8285611f20565b915061255682612185565b91506125628284611eef565b915061256d82612305565b915081905095945050505050565b600060208201905081810360008301526125958184611d89565b905092915050565b600060608201905081810360008301526125b78186611eb6565b905081810360208301526125cb8185611eb6565b905081810360408301526125df8184611eb6565b9050949350505050565b6000602082019050818103600083015261260281611f9f565b9050919050565b6000602082019050818103600083015261262281611fdf565b9050919050565b600060208201905081810360008301526126428161205f565b9050919050565b6000602082019050818103600083015261266281612205565b9050919050565b6000602082019050818103600083015261268281612245565b9050919050565b6000604051905081810181811067ffffffffffffffff821117156126b0576126af6129fc565b5b8060405250919050565b600067ffffffffffffffff8211156126d5576126d46129fc565b5b602082029050602081019050919050565b600067ffffffffffffffff821115612701576127006129fc565b5b601f19601f8301169050602081019050919050565b6000819050602082019050919050565b60008190508160005260206000209050919050565b60008190508160005260206000209050919050565b600081519050919050565b600081519050919050565b6000602082019050919050565b600082825260208201905092915050565b600081905092915050565b600082825260208201905092915050565b600082825260208201905092915050565b600081905092915050565b60006127c782612877565b91506127d283612877565b9250827fffffffffffffffffffffffffffffffffffffffffffffffffffffffffffffffff038211156128075761280661296f565b5b828201905092915050565b600061281d82612877565b915061282883612877565b9250826128385761283761299e565b5b828204905092915050565b600061284e82612877565b915061285983612877565b92508282101561286c5761286b61296f565b5b828203905092915050565b6000819050919050565b82818337600083830152505050565b60005b838110156128ae578082015181840152602081019050612893565b838111156128bd576000848401525b50505050565b600060028204905060018216806128db57607f821691505b602082108114156128ef576128ee6129cd565b5b50919050565b600061290082612877565b91507fffffffffffffffffffffffffffffffffffffffffffffffffffffffffffffffff8214156129335761293261296f565b5b600182019050919050565b600061294982612877565b915061295483612877565b9250826129645761296361299e565b5b828206905092915050565b7f4e487b7100000000000000000000000000000000000000000000000000000000600052601160045260246000fd5b7f4e487b7100000000000000000000000000000000000000000000000000000000600052601260045260246000fd5b7f4e487b7100000000000000000000000000000000000000000000000000000000600052602260045260246000fd5b7f4e487b7100000000000000000000000000000000000000000000000000000000600052604160045260246000fd5b6000601f19601f8301169050919050565b612a4581612877565b8114612a5057600080fd5b5056fea2646970667358221220d462efaba83540c0215ca7a805b7e3fc6b15ad7bd160d7aeb96526dcad78815564736f6c63430008000033",
  "immutableReferences": {},
  "source": "// SPDX-License-Identifier: MIT\npragma solidity ^0.8.0;\n\ncontract MiniPoll { \n    struct VoteInput {\n        uint question;\n        uint answer_option;\n        string text;\n    }\n\n    struct AnswerOption{\n        uint id;\n        string name;\n        uint question;\n        uint votes;\n    }\n\n    struct Question {\n        uint id;\n        string name;\n        AnswerOption[] answer_options;\n    }\n\n    struct Poll {\n        string poll_id;\n        string name;\n        string poll_type;\n        Question[] questions;\n        string[] options;\n    }\n\n    Poll[] public polls;\n    uint private questionIdCounter = 0;\n    uint private answerIdCounter = 0;\n    mapping(string => bool) private existingPollIDs;\n\n     function vote(string memory poll_id, VoteInput[] memory votes) public {\n        (uint pollIndex, bool found) = findPollIndex(poll_id);\n        require(found, \"Poll not found\");\n\n        for (uint i = 0; i < votes.length; i++) {\n            (uint questionIndex, bool questionFound) = findQuestionIndex(pollIndex, votes[i].question);\n            require(questionFound, \"Question not found\");\n\n            (uint answerIndex, bool answerFound) = findAnswerIndex(pollIndex, questionIndex, votes[i].answer_option);\n            require(answerFound, \"Answer option not found\");\n\n            // Record the vote\n            polls[pollIndex].questions[questionIndex].answer_options[answerIndex].votes++;\n        }\n    }\n\n    function findAnswerIndex(uint pollIndex, uint questionIndex, uint answerId) private view returns (uint, bool) {\n        Question storage question = polls[pollIndex].questions[questionIndex];\n        for (uint i = 0; i < question.answer_options.length; i++) {\n            if (question.answer_options[i].id == answerId) {\n                return (i, true);\n            }\n        }\n        return (0, false);\n    }\n\n\n    function createPoll(string memory poll_id, string memory poll_type) public {\n        require(!existingPollIDs[poll_id], \"Poll with this ID already exists.\");\n\n        Poll storage newPoll = polls.push();\n        newPoll.poll_id = poll_id;\n        newPoll.poll_type = poll_type;\n        \n        existingPollIDs[poll_id] = true;\n    }\n\n    function patchPoll(string memory poll_id, string memory field, string memory value) public {\n        (uint index, bool found) = findPollIndex(poll_id);\n        require(found, \"Poll not found\");\n\n         if (keccak256(bytes(field)) == keccak256(bytes(\"name\"))) {\n            polls[index].name = value;\n        } else {\n            revert(\"Field not recognized\");\n        }\n    }\n\n    function findPollIndex(string memory poll_id) private view returns (uint, bool) {\n        for (uint i = 0; i < polls.length; i++) {\n            if (keccak256(bytes(polls[i].poll_id)) == keccak256(bytes(poll_id))) {\n                return (i, true);\n            }\n        }\n        return (0, false);\n    }\n\n    function uintToString(uint _i) internal pure returns (string memory _uintAsString) {\n        if (_i == 0) {\n            return \"0\";\n        }\n        uint j = _i;\n        uint len;\n        while (j != 0) {\n            len++;\n            j /= 10;\n        }\n        bytes memory bstr = new bytes(len);\n        uint k = len;\n        while (_i != 0) {\n            k = k - 1;\n            bstr[k] = bytes1(uint8(48 + _i % 10));\n            _i /= 10;\n        }\n        return string(bstr);\n    }\n\nfunction getAllPolls() public view returns (string[] memory) {\n    string[] memory allPolls = new string[](polls.length);\n    for (uint i = 0; i < polls.length; i++) {\n        string memory questionDetails = \"\";\n        for (uint j = 0; j < polls[i].questions.length; j++) {\n            if (j > 0) {\n                questionDetails = string(abi.encodePacked(questionDetails, \", \"));\n            }\n            string memory answersDetails = formatAnswers(polls[i].questions[j].answer_options);\n            questionDetails = string(abi.encodePacked(questionDetails, \"{QID: \", uintToString(polls[i].questions[j].id),\n                \", QName: \", polls[i].questions[j].name, \", Answers: [\", answersDetails, \"]}\"));\n        }\n        allPolls[i] = string(abi.encodePacked(\"Poll ID: \", polls[i].poll_id, \", Name: \", polls[i].name,\n            \", Type: \", polls[i].poll_type, \", Questions: [\", questionDetails, \"]\"));\n    }\n    return allPolls;\n}\n\n    function formatAnswers(AnswerOption[] storage answers) private view returns (string memory) {\n        string memory details = \"\";\n        for (uint k = 0; k < answers.length; k++) {\n            if (k != 0) {\n                details = string(abi.encodePacked(details, \", \"));\n            }\n            details = string(abi.encodePacked(details, \"{AID: \", uintToString(answers[k].id), \", AName: \", answers[k].name));\n        }\n        return details;\n    }\n\n\n     function findQuestionIndex(uint pollIndex, uint question_id) private view returns (uint, bool) {\n        for (uint i = 0; i < polls[pollIndex].questions.length; i++) {\n            if (polls[pollIndex].questions[i].id == question_id) {\n                return (i, true);\n            }\n        }\n        return (0, false);\n    }\n\n    function addAnswerToQuestion(string memory poll_id, uint question_id) public {\n        (uint pollIndex, bool pollFound) = findPollIndex(poll_id);\n        require(pollFound, \"Poll not found\");\n\n        (uint questionIndex, bool questionFound) = findQuestionIndex(pollIndex, question_id);\n        require(questionFound, \"Question not found\");\n\n        AnswerOption storage newAnswer = polls[pollIndex].questions[questionIndex].answer_options.push();\n\n        newAnswer.id = answerIdCounter++;\n        newAnswer.question = polls[pollIndex].questions[questionIndex].id;\n\n        polls[pollIndex].questions[questionIndex].answer_options.push(newAnswer);\n    }\n    \n\n    function addQuestionToPoll(string memory poll_id) public {\n        (uint pollIndex, bool found) = findPollIndex(poll_id);\n        require(found, \"Poll not found\");\n\n        Question storage newQuestion = polls[pollIndex].questions.push();\n        newQuestion.id = questionIdCounter++; \n        newQuestion.name = \"Test que name 1\";\n\n        polls[pollIndex].questions.push(newQuestion);\n    }\n\n}\n",
  "sourcePath": "/Users/alexandr/Documents/QPole-PSU/blockchain/contracts/SimpleStorage.sol",
  "compiler": {
    "name": "solc",
    "version": "0.8.0+commit.c7dfd78e.Emscripten.clang"
  },
  "schemaVersion": "3.4.16",
  "updatedAt": "2024-04-25T11:21:58.455Z",
  "networkType": "ethereum",
  "devdoc": {
    "kind": "dev",
    "methods": {},
    "version": 1
  },
  "userdoc": {
    "kind": "user",
    "methods": {},
    "version": 1
  }
}