{
  "contractName": "MiniPoll",
  "abi": [
    {
      "inputs": [
        {
          "internalType": "uint256",
          "name": "",
          "type": "uint256"
        }
      ],
      "name": "polls",
      "outputs": [
        {
          "internalType": "string",
          "name": "question",
          "type": "string"
        }
      ],
      "stateMutability": "view",
      "type": "function",
      "constant": true
    },
    {
      "inputs": [
        {
          "internalType": "string",
          "name": "question",
          "type": "string"
        },
        {
          "internalType": "string[]",
          "name": "options",
          "type": "string[]"
        }
      ],
      "name": "createPoll",
      "outputs": [],
      "stateMutability": "nonpayable",
      "type": "function"
    },
    {
      "inputs": [
        {
          "internalType": "uint256",
          "name": "pollIndex",
          "type": "uint256"
        },
        {
          "internalType": "uint256[]",
          "name": "answerOptions",
          "type": "uint256[]"
        }
      ],
      "name": "vote",
      "outputs": [],
      "stateMutability": "nonpayable",
      "type": "function"
    },
    {
      "inputs": [
        {
          "internalType": "uint256",
          "name": "pollIndex",
          "type": "uint256"
        }
      ],
      "name": "getPollResults",
      "outputs": [
        {
          "internalType": "string",
          "name": "question",
          "type": "string"
        },
        {
          "internalType": "string[]",
          "name": "options",
          "type": "string[]"
        },
        {
          "internalType": "uint256[]",
          "name": "votes",
          "type": "uint256[]"
        }
      ],
      "stateMutability": "view",
      "type": "function",
      "constant": true
    },
    {
      "inputs": [],
      "name": "getAllPolls",
      "outputs": [
        {
          "internalType": "string[]",
          "name": "questions",
          "type": "string[]"
        }
      ],
      "stateMutability": "view",
      "type": "function",
      "constant": true
    }
  ],
  "bytecode": "0x608060405234801561001057600080fd5b506111d7806100206000396000f3fe608060405234801561001057600080fd5b50600436106100575760003560e01c806332b633fa1461005c57806333b4097b1461007a5780637055d368146100ac5780637e3d71c3146100c8578063ac2f0074146100e4575b600080fd5b610064610114565b6040516100719190610dfd565b60405180910390f35b610094600480360381019061008f9190610b80565b6102d0565b6040516100a393929190610e41565b60405180910390f35b6100c660048036038101906100c19190610ba9565b610592565b005b6100e260048036038101906100dd9190610b14565b610703565b005b6100fe60048036038101906100f99190610b80565b61075d565b60405161010b9190610e1f565b60405180910390f35b606060008054905067ffffffffffffffff81111561015b577f4e487b7100000000000000000000000000000000000000000000000000000000600052604160045260246000fd5b60405190808252806020026020018201604052801561018e57816020015b60608152602001906001900390816101795790505b50905060005b6000805490508110156102cc57600081815481106101db577f4e487b7100000000000000000000000000000000000000000000000000000000600052603260045260246000fd5b906000526020600020906003020160000180546101f790611071565b80601f016020809104026020016040519081016040528092919081815260200182805461022390611071565b80156102705780601f1061024557610100808354040283529160200191610270565b820191906000526020600020905b81548152906001019060200180831161025357829003601f168201915b50505050508282815181106102ae577f4e487b7100000000000000000000000000000000000000000000000000000000600052603260045260246000fd5b602002602001018190525080806102c4906110a3565b915050610194565b5090565b60608060606000808581548110610310577f4e487b7100000000000000000000000000000000000000000000000000000000600052603260045260246000fd5b906000526020600020906003020190506000816001018054905067ffffffffffffffff811115610369577f4e487b7100000000000000000000000000000000000000000000000000000000600052604160045260246000fd5b6040519080825280602002602001820160405280156103975781602001602082028036833780820191505090505b50905060005b826001018054905081101561041a57826002016000828152602001908152602001600020548282815181106103fb577f4e487b7100000000000000000000000000000000000000000000000000000000600052603260045260246000fd5b6020026020010181815250508080610412906110a3565b91505061039d565b5081600001826001018282805461043090611071565b80601f016020809104026020016040519081016040528092919081815260200182805461045c90611071565b80156104a95780601f1061047e576101008083540402835291602001916104a9565b820191906000526020600020905b81548152906001019060200180831161048c57829003601f168201915b5050505050925081805480602002602001604051908101604052809291908181526020016000905b8282101561057d5783829060005260206000200180546104f090611071565b80601f016020809104026020016040519081016040528092919081815260200182805461051c90611071565b80156105695780601f1061053e57610100808354040283529160200191610569565b820191906000526020600020905b81548152906001019060200180831161054c57829003601f168201915b5050505050815260200190600101906104d1565b50505050915094509450945050509193909250565b60008054905082106105d9576040517f08c379a00000000000000000000000000000000000000000000000000000000081526004016105d090610e8d565b60405180910390fd5b6000808381548110610614577f4e487b7100000000000000000000000000000000000000000000000000000000600052603260045260246000fd5b9060005260206000209060030201905060005b82518110156106fd57600083828151811061066b577f4e487b7100000000000000000000000000000000000000000000000000000000600052603260045260246000fd5b60200260200101519050826001018054905081106106be576040517f08c379a00000000000000000000000000000000000000000000000000000000081526004016106b590610ead565b60405180910390fd5b82600201600082815260200190815260200160002060008154809291906106e4906110a3565b91905055505080806106f5906110a3565b915050610627565b50505050565b60008060018160018154018082558091505003906000526020600020906003020190508281600001908051906020019061073e929190610813565b5081816001019080519060200190610757929190610899565b50505050565b6000818154811061076d57600080fd5b906000526020600020906003020160009150905080600001805461079090611071565b80601f01602080910402602001604051908101604052809291908181526020018280546107bc90611071565b80156108095780601f106107de57610100808354040283529160200191610809565b820191906000526020600020905b8154815290600101906020018083116107ec57829003601f168201915b5050505050905081565b82805461081f90611071565b90600052602060002090601f0160209004810192826108415760008555610888565b82601f1061085a57805160ff1916838001178555610888565b82800160010185558215610888579182015b8281111561088757825182559160200191906001019061086c565b5b50905061089591906108f9565b5090565b8280548282559060005260206000209081019282156108e8579160200282015b828111156108e75782518290805190602001906108d7929190610813565b50916020019190600101906108b9565b5b5090506108f59190610916565b5090565b5b808211156109125760008160009055506001016108fa565b5090565b5b80821115610936576000818161092d919061093a565b50600101610917565b5090565b50805461094690611071565b6000825580601f106109585750610977565b601f01602090049060005260206000209081019061097691906108f9565b5b50565b600061098d61098884610efe565b610ecd565b9050808382526020820190508260005b858110156109cd57813585016109b38882610ad5565b84526020840193506020830192505060018101905061099d565b5050509392505050565b60006109ea6109e584610f2a565b610ecd565b90508083825260208201905082856020860282011115610a0957600080fd5b60005b85811015610a395781610a1f8882610aff565b845260208401935060208301925050600181019050610a0c565b5050509392505050565b6000610a56610a5184610f56565b610ecd565b905082815260208101848484011115610a6e57600080fd5b610a7984828561102f565b509392505050565b600082601f830112610a9257600080fd5b8135610aa284826020860161097a565b91505092915050565b600082601f830112610abc57600080fd5b8135610acc8482602086016109d7565b91505092915050565b600082601f830112610ae657600080fd5b8135610af6848260208601610a43565b91505092915050565b600081359050610b0e8161118a565b92915050565b60008060408385031215610b2757600080fd5b600083013567ffffffffffffffff811115610b4157600080fd5b610b4d85828601610ad5565b925050602083013567ffffffffffffffff811115610b6a57600080fd5b610b7685828601610a81565b9150509250929050565b600060208284031215610b9257600080fd5b6000610ba084828501610aff565b91505092915050565b60008060408385031215610bbc57600080fd5b6000610bca85828601610aff565b925050602083013567ffffffffffffffff811115610be757600080fd5b610bf385828601610aab565b9150509250929050565b6000610c098383610cfc565b905092915050565b6000610c1d8383610dee565b60208301905092915050565b6000610c3482610fa6565b610c3e8185610fe1565b935083602082028501610c5085610f86565b8060005b85811015610c8c5784840389528151610c6d8582610bfd565b9450610c7883610fc7565b925060208a01995050600181019050610c54565b50829750879550505050505092915050565b6000610ca982610fb1565b610cb38185610ff2565b9350610cbe83610f96565b8060005b83811015610cef578151610cd68882610c11565b9750610ce183610fd4565b925050600181019050610cc2565b5085935050505092915050565b6000610d0782610fbc565b610d118185611003565b9350610d2181856020860161103e565b610d2a81611179565b840191505092915050565b6000610d4082610fbc565b610d4a8185611014565b9350610d5a81856020860161103e565b610d6381611179565b840191505092915050565b6000610d7b601c83611014565b91507f506f6c6c20696e646578206973206f7574206f6620626f756e64732e000000006000830152602082019050919050565b6000610dbb601e83611014565b91507f4f7074696f6e20696e646578206973206f7574206f6620626f756e64732e00006000830152602082019050919050565b610df781611025565b82525050565b60006020820190508181036000830152610e178184610c29565b905092915050565b60006020820190508181036000830152610e398184610d35565b905092915050565b60006060820190508181036000830152610e5b8186610d35565b90508181036020830152610e6f8185610c29565b90508181036040830152610e838184610c9e565b9050949350505050565b60006020820190508181036000830152610ea681610d6e565b9050919050565b60006020820190508181036000830152610ec681610dae565b9050919050565b6000604051905081810181811067ffffffffffffffff82111715610ef457610ef361114a565b5b8060405250919050565b600067ffffffffffffffff821115610f1957610f1861114a565b5b602082029050602081019050919050565b600067ffffffffffffffff821115610f4557610f4461114a565b5b602082029050602081019050919050565b600067ffffffffffffffff821115610f7157610f7061114a565b5b601f19601f8301169050602081019050919050565b6000819050602082019050919050565b6000819050602082019050919050565b600081519050919050565b600081519050919050565b600081519050919050565b6000602082019050919050565b6000602082019050919050565b600082825260208201905092915050565b600082825260208201905092915050565b600082825260208201905092915050565b600082825260208201905092915050565b6000819050919050565b82818337600083830152505050565b60005b8381101561105c578082015181840152602081019050611041565b8381111561106b576000848401525b50505050565b6000600282049050600182168061108957607f821691505b6020821081141561109d5761109c61111b565b5b50919050565b60006110ae82611025565b91507fffffffffffffffffffffffffffffffffffffffffffffffffffffffffffffffff8214156110e1576110e06110ec565b5b600182019050919050565b7f4e487b7100000000000000000000000000000000000000000000000000000000600052601160045260246000fd5b7f4e487b7100000000000000000000000000000000000000000000000000000000600052602260045260246000fd5b7f4e487b7100000000000000000000000000000000000000000000000000000000600052604160045260246000fd5b6000601f19601f8301169050919050565b61119381611025565b811461119e57600080fd5b5056fea26469706673582212207da858972fae44f79134c92fb0b8dc572de01809bcc1766554684ac7f583728e64736f6c63430008000033",
  "immutableReferences": {},
  "source": "// SPDX-License-Identifier: MIT\npragma solidity ^0.8.0;\n\ncontract MiniPoll {\n    struct Poll {\n        string question;\n        string[] options;\n        mapping(uint => uint) votes;\n    }\n\n    Poll[] public polls;\n\n    function createPoll(string memory question, string[] memory options) public {\n        Poll storage newPoll = polls.push();\n        newPoll.question = question;\n        newPoll.options = options;\n    }\n\n    //   \n    function vote(uint pollIndex, uint[] memory answerOptions) public {\n        require(pollIndex < polls.length, \"Poll index is out of bounds.\"); //   \n        Poll storage poll = polls[pollIndex];\n        for (uint i = 0; i < answerOptions.length; i++) {\n            uint optionIndex = answerOptions[i];\n            require(optionIndex < poll.options.length, \"Option index is out of bounds.\"); //   optionIndex\n            poll.votes[optionIndex]++;\n        }\n    }\n\n   //   \n    function getPollResults(uint pollIndex) public view returns (string memory question, string[] memory options, uint[] memory votes) {\n        Poll storage poll = polls[pollIndex];\n        uint[] memory votesArray = new uint[](poll.options.length);\n        for (uint i = 0; i < poll.options.length; i++) {\n            votesArray[i] = poll.votes[i];\n        }\n        return (poll.question, poll.options, votesArray);\n    }\n\n    //   \n    function getAllPolls() public view returns (string[] memory questions) {\n        questions = new string[](polls.length);\n        for (uint i = 0; i < polls.length; i++) {\n            questions[i] = polls[i].question;\n        }\n        return questions;\n    }\n}\n",
  "sourcePath": "/Users/alexandr/Documents/QPole-PSU/blockchain/contracts/SimpleStorage.sol",
  "compiler": {
    "name": "solc",
    "version": "0.8.0+commit.c7dfd78e.Emscripten.clang"
  },
  "schemaVersion": "3.4.16",
  "updatedAt": "2024-04-21T10:11:26.266Z",
  "networkType": "ethereum",
  "devdoc": {
    "kind": "dev",
    "methods": {},
    "version": 1
  },
  "userdoc": {
    "kind": "user",
    "methods": {},
    "version": 1
  }
}